:100000000C9435000C945D000C945D000C945D0024
:100010000C945D000C945D000C94E1020C945D0066
:100020000C945D000C945D000C945D000C945D00DC
:100030000C945D000C945D000C945D000C945D00CC
:100040000C94EB020C945D000C94F9020C945D008E
:100050000C945D000C945D000C945D000C945D00AC
:100060000C945D000C945D008F0311241FBECFEF34
:10007000D8E0DEBFCDBF11E0A0E0B1E0E6E9F7E0F7
:1000800002C005900D92A233B107D9F711E0A2E3A7
:10009000B1E001C01D92AD3AB107E1F710E0CAE648
:1000A000D0E004C02297FE010E94BE03C836D107EB
:1000B000C9F70E9421030C94C9030C940000289AEC
:1000C0002BB1982F907F2F70922B9BB92898289A4C
:1000D0009BB18295807F9F70892B8BB92898289A35
:1000E00088EB8A95F1F70000089529980E945F0037
:1000F0000895299A0E945F000895CF92DF92EF92AF
:10010000FF920F931F93DF93CF9300D0CDB7DEB74D
:100110006C01DC01FC0174968CE301900D9281501E
:10012000E1F79601245C3F4FC90160E270E044E1D1
:1001300050E00E94C20300E010E090E0892F806848
:100140009A830E9475007601E00EF11E20E09A81EC
:10015000F70181917F0129839A830E947900298187
:100160002F5F9A812431A1F7905C0C5E1F4F003500
:10017000110521F7F601EF5AFF4F80818295880F14
:10018000880F807CF601E05BFF4F9081890F8068CB
:100190000E9475000F900F90CF91DF911F910F91EA
:1001A000FF90EF90DF90CF900895CF93DF93EC0115
:1001B0008CE00E94750081E00E94750089E995E15C
:1001C0000197F1F700C0FE01EF5AFF4F1082FE01C8
:1001D000E05BFF4F1082CE0160E270E040E550E04E
:1001E0000E94C203CE5ADF4F8881882319F08FE026
:1001F0000E947500DF91CF910895CF93DF93EC01BA
:10020000FC01EF5AFF4F1082FC01E05BFF4F1082B0
:1002100082E00E947500CE5ADF4F8881882319F052
:100220008FE00E947500DF91CF910895FC01E05BA3
:10023000FF4F60838F5A9F4FFC014083842F817052
:100240008295880F880F807C860F423008F08C5E84
:1002500080680E9475000895EF92FF920F931F939C
:10026000DF93CF930F92CDB7DEB77C01262F6A3094
:1002700051F16B3028F4683051F06930D9F513C072
:100280006C30F1F06C3060F06D30A1F52BC0FC01EA
:10029000E05BFF4F6081662309F471C061500BC0C1
:1002A0000E94FD006CC0FC01E05BFF4F6081653186
:1002B00008F065C06F5FF701EF5AFF4FC70116C026
:1002C0000E94D5005CC0FC01EF5AFF4F40814330D3
:1002D00018F00E947D0053C0FC01E05BFF4F4F5FB0
:1002E000608105C0FC01EF5AFF4F60E040810E9431
:1002F000160145C0F701E05BFF4F8081843100F1BA
:10030000F701EF5AFF4F8081843030F0C701298315
:100310000E947D00298102C08F5F8083F701EF5A20
:10032000FF4F8081843010F083E08083F701EF5A23
:10033000FF4FC70160E0408129830E941601298197
:10034000F701EF5AFF4F408150E08701005B1F4FDC
:10035000F801308184E190E0489FF001499FF00D61
:10036000589FF00D1124E30FF11DEE0DFF1D2083AA
:10037000822F0E947900F80180818F5F80830F9027
:10038000CF91DF911F910F91FF90EF900895CF9340
:10039000DF93EC01299A289A8BB1806F8BB98FEF8C
:1003A00097ED0197F1F700C000008BB18F7080636B
:1003B0008BB9299828988FEF91EA0197F1F700C03F
:1003C0000000289A28988FEF95E30197F1F700C075
:1003D0000000289A28988FEF95E30197F1F700C065
:1003E0000000289A8BB18F7080628BB928988FEFAC
:1003F00095E30197F1F700C00000289A88E20E9477
:10040000750086E00E947500CE010E94D500CE5A8C
:10041000DF4F1882DF91CF910895FC01928D9830C3
:1004200060F4808DDF01A80FB11D50966C9350973A
:100430008F5F8770808F9F5F928F0895FC01108E71
:10044000118E128E80E091E0948F838F80E1119263
:100450008A95E9F70895EF92FF920F931F93CF9338
:10046000DF93EC01082FBD2F982F292F3D2F80E01F
:1004700090E040E150E0EBB1BA01082E02C0660FF7
:10048000771F0A94E2F7762F70957E237BB977E089
:100490007A95F1F700C076B176957695EBB1E62BBB
:1004A000EBB9F901A0E0172F11706081660F612B85
:1004B00061937695AF5FA430B1F72C5F3F4F019603
:1004C00084309105C1F6E02EFB2E00E010E0F7012C
:1004D00081917F018F71803141F4EB8DFC8DE00FB4
:1004E000F11FCE0160810E940D020F5F1F4F00318E
:1004F000110569F7DF91CF911F910F91FF90EF9058
:100500000895FC01228D222369F0918DDF01A90F4E
:10051000B11D50968C9150979F5F9770918F21508D
:10052000228F089580E00895FC018285883068F468
:1005300082858F5F82878085DF01A80FB11D6C9354
:100540008F5F80878085877080870895FC01828512
:10055000882371F09185DF01A90FB11D8C919F5FF8
:100560009187918597709187928591509287089590
:1005700080E00895FC019A01AB0112868285818793
:100580008185808764E0220F331F441F551F6A95C1
:10059000D1F760E070EC88EA90E00E949A03DA01FB
:1005A000C9010197A109B109892F9A2FAB2FBB2748
:1005B0008093C50021502093C40088E98093C10036
:1005C00008951F920F920FB60F9211240F900FBE35
:1005D0000F901F9018951F920F920FB60F92112433
:1005E0008F9389E786BD8F910F900FBE0F901F905C
:1005F00018951F920F920FB60F9211242F933F93CD
:100600004F935F936F937F938F939F93AF93BF931A
:10061000EF93FF936091C60082EA91E00E949402FA
:10062000FF91EF91BF91AF919F918F917F916F91CA
:100630005F914F913F912F910F900FBE0F901F90A0
:100640001895CF9314BE15BE17B88EEF8AB987E000
:1006500084B98CE388B91BB880E385B985E085BD92
:10066000C1E0C0936E0089E786BD83B7817F83BFF9
:1006700083B7816083BF8091600088618093600050
:1006800088EE8093600082E391E00E94C701C093EE
:1006900084018FE00E947500E3B1F0E0A3E0F595DE
:1006A000E795AA95E1F7E770F0E0EE0FFF1FEE0F78
:1006B000FF1FEF5EFE4F408151816281738182EAAC
:1006C00091E00E94BA0278948895A8958091600084
:1006D00080648093600085E891E00E942B02809105
:1006E0009F01882371F08091C00085FF0AC085E8D2
:1006F00091E00E9481029091C00095FFFCCF809311
:10070000C6008091AC018823F9F282EA91E00E9450
:10071000A602682F82E391E00E942C01D5CF85E8E4
:1007200091E00E941E021092AA011092AB01109259
:10073000AC010895A1E21A2EAA1BBB1BFD010DC03E
:10074000AA1FBB1FEE1FFF1FA217B307E407F50781
:1007500020F0A21BB30BE40BF50B661F771F881F5D
:10076000991F1A9469F760957095809590959B01F3
:10077000AC01BD01CF010895EE0FFF1F0590F4916C
:10078000E02D0994DC0101C06D9341505040E0F729
:060790000895F894FFCF6C
:100796004133323142363534433938374423302AEF
:1007A6000000E1000000C20100004B0000009600BE
:1007B60000C012000080250000B00400006009009F
:0207C600000031
:00000001FF
