:100000000C9435000C945D000C945D000C945D0024
:100010000C945D000C945D000C947B000C945D00CE
:100020000C945D000C945D000C945D000C945D00DC
:100030000C945D000C945D000C945D000C945D00CC
:100040000C9485000C945D000C9493000C945D005E
:100050000C945D000C945D000C945D000C945D00AC
:100060000C945D000C945D003D0311241FBECFEF86
:10007000D8E0DEBFCDBF11E0A0E0B1E0E6E0F7E000
:1000800002C005900D92A233B107D9F721E0A2E397
:10009000B1E001C01D92A53EB207E1F710E0C5E353
:1000A000D0E004C02197FE010E947403C433D1073D
:1000B000C9F70E9497020C9481030C940000289ABF
:1000C0009BB19F70282F207F922B9BB92898289A4C
:1000D0009BB19F7040E1849F90011124892F822B56
:1000E0008BB92898289A88EB8A95F1F70000089533
:1000F00029980C945F001F920F920FB60F92112453
:100100000F900FBE0F901F9018951F920F920FB671
:100110000F9211248F9389E786BD8F910F900FBEA8
:100120000F901F9018951F920F920FB60F921124E7
:100130008F939F93EF93FF939091C60080917401EA
:100140008034A0F4809174018F5F80937401E091FA
:10015000720181E08E0F80937201F0E0EE5CFE4F41
:100160009083809172018F7380937201FF91EF9160
:100170009F918F910F900FBE0F901F901895CF9267
:10018000DF92EF92FF920F931F93CF93DF93EC01D7
:10019000FC0174968CE3DE0101900D928A95E1F7E3
:1001A00044E150E060E270E0CE01CC960E947A0318
:1001B0007E0110E0812F81708295880F880F807CEE
:1001C000123008F08C5E80680E947800670104E1BC
:1001D000F60181916F01299A0E945F000150C1F7D9
:1001E0001F5FF4E1EF0EF11C143021F7FE01EF5A0E
:1001F000FF4F80818295880F880F807CC05BDF4F26
:100200009881890F8068DF91CF911F910F91FF90A6
:10021000EF90DF90CF900C947800CF93DF93EC01B8
:100220008CE00E94780081E00E94780089E995E1E5
:100230000197F1F700C0FE01EF5AFF4F108231978E
:10024000108240E550E060E270E0CE010E947A0347
:10025000CE5ADF4F8881882329F08FE0DF91CF913C
:100260000C947800DF91CF910895FC01E05BFF4F83
:10027000608331964083842F81708295880F880F28
:10028000807C860F423008F08C5E80680C94780089
:10029000CF92DF92EF92FF921F93CF93DF93EC0107
:1002A000162F6A3009F48FC008F045C0FC01E05BEE
:1002B000FF4F683009F44CC0693009F472C06E0118
:1002C00020E5C20ED11CF60180819E012F5A3F4FBE
:1002D00079018431A0F0F9018081833008F488C06D
:1002E000CE010E94BF00F7018081843010F083E0CE
:1002F0008083F701408160E0CE010E943501F70163
:100300009081F6018081F4E19F9FC00DD11D1124E1
:10031000C80FD11D1883299A812F0E945F00F60112
:1003200080818F5F8083DF91CF911F91FF90EF904D
:10033000DF90CF9008956C30E9F1FC01EF5AFF4F48
:100340006C30C0F06D3009F0BACF408160E008C079
:100350006081662341F3FC01EF5AFF4F61504081F9
:10036000CE01DF91CF911F91FF90EF90DF90CF9062
:100370000C9435011082FC01E05BFF4F108282E09B
:100380000E947800CE5ADF4F8881882361F28FE087
:10039000DF91CF911F91FF90EF90DF90CF900C9461
:1003A00078006081653108F0BECFFC01EF5AFF4F45
:1003B0006F5FD5CFDF91CF911F91FF90EF90DF90CE
:1003C000CF900C940D01FC01EF5AFF4F4081433058
:1003D00048F0DF91CF911F91FF90EF90DF90CF9089
:1003E0000C94BF004F5FFC01E05BFF4F6081B8CF12
:1003F0008F5F808378CFCF93DF93EC01299A289A7F
:100400008BB1806F8BB98FEF97ED0197F1F700C03B
:1004100000008BB18F7080638BB9299828988FEF7B
:1004200091EA0197F1F700C00000289A28988FEF11
:1004300095E30197F1F700C00000289A28988FEF04
:1004400095E30197F1F700C00000289A8BB18F70F7
:1004500080628BB928988FEF95E30197F1F700C080
:100460000000289A88E20E94780086E00E947800C6
:10047000CE010E940D01CE5ADF4F1882DF91CF913D
:100480000895CF93DF93FC01DC0130E020E040E1F0
:1004900050E09BB1BA01022E01C0660F0A94EAF740
:1004A000862F809589238BB987E08A95F1F700C064
:1004B00086B1869586959BB1962B9BB9BD016C5FE5
:1004C0007F4F9C91990FC82FC1709C2B9D9386954F
:1004D0006A177B07B1F7DB012F5F3F4F24303105EF
:1004E000C1F69F01205F3F4FEF01AF01409550954E
:1004F00089918F718031A9F4928D983090F4A38DF9
:10050000B48DAC0FBD1FA40FB51F6C91808DDF01A2
:10051000A80FB11D50966C938F5F8770808F9F5F7F
:10052000928F2C173D0721F7DF91CF91089514BECC
:1005300015BE17B88EEF8AB987E084B98CE388B905
:100540001BB880E385B985E085BDC1E0C0936E002E
:1005500089E786BD83B7817F83BF83B7816083BF0F
:1005600088E1809360008FE48093600082E991E0ED
:100570000E94FB01C093E4018FE00E947800E3B188
:10058000F0E083E0F595E7958A95E1F7E77084E080
:10059000E89FF0011124E050FF4F2081318142811A
:1005A000538110927401109273011092720194E0C1
:1005B000220F331F441F551F9A95D1F760E070EC4E
:1005C00088EA90E00E945203DA01C9010197A1096B
:1005D000B109892F9A2FAB2FBB278093C5002150DB
:1005E0002093C40088E98093C1007894C7E488957B
:1005F000A895C093600085E791E00E944102909128
:100600008F019923C1F08091C00085FF14C08091B3
:100610008E01E82FF0E0EB58FE4F20898F5F877046
:1006200080938E01915090938F018091C00085FF3F
:10063000FCCF2093C600809174018823C1F2809181
:10064000740160E08823A1F0E091730181E08E0FD6
:1006500080937301F0E0EE5CFE4F60818091730146
:100660008F73809373018091740181508093740122
:1006700082E991E00E944801BACFE5E7F1E0108EEF
:10068000118E128E80E291E0948F838F80E1DF01E2
:100690001D928A95E9F710927201109273011092DF
:1006A00074010895A1E21A2EAA1BBB1BFD010DC007
:1006B000AA1FBB1FEE1FFF1FA217B307E407F50712
:1006C00020F0A21BB30BE40BF50B661F771F881FEE
:1006D000991F1A9469F760957095809590959B0184
:1006E000AC01BD01CF010895EE0FFF1F0590F491FD
:1006F000E02D0994DC0101C06D9341505040E0F7BA
:060700000895F894FFCFFC
:1007060000E1000000C20100004B0000009600005E
:10071600C012000080250000B0040000600900003F
:100726004133323142363534433938374423302A5F
:020736000000C1
:00000001FF
